S00C0000756172742E737265635C
S11300000C9434000C9451000C9451000C94510045
S11300100C9451000C9451000C9451000C94510018
S11300200C9451000C9451000C9451000C94510008
S11300300C9451000C9447010C9451000C94510001
S11300400C9451000C9451000C949B020C94C90222
S11300500C9451000C945C010C9451000C945100CC
S11300600C9451000C94510011241FBECFEFD8E022
S1130070DEBFCDBF11E0A0E0B1E0EEECF6E002C0DF
S113008005900D92A435B107D9F721E0A4E5B1E0BC
S113009001C01D92A939B207E1F70E94F6000C9441
S11300A065030C940000299A85E08A95F1F7000015
S11300B029980895CF93C82F662311F0289A01C078
S11300C02898549A559A569A579A5F985E985D98CC
S11300D05C98CC230CF45F9AC6FD5E9AC5FD5D9ACC
S11300E0C4FD5C9A0E9453005F985E985D985C988A
S11300F0C3FD5F9AC2FD5E9AC1FD5D9AC0FD5C9A24
S11301000E9453005C9A5D9A5E9A5F9A87EB9BE02B
S11301100197F1F700C00000CF91089560E00E94BC
S11301205A000895611104C080580E948E000895F9
S113013080540E948E00089581E00E948E000895EC
S113014061E00E945A000895CF93DF93EC01219659
S1130150FC018081882329F00E94A00089918111EB
S1130160FBCFDF91CF910895CF93C82F209A559A52
S1130170219A549A559A569A579A8FEF99EF019764
S1130180F1F700C000005D9A5C9A0E9453008FE171
S11301909EE40197F1F700C000000E9453008FEF26
S11301A090E00197F1F700C000000E9453008FEF28
S11301B090E00197F1F700C000005C980E945300A2
S11301C08FEF90E00197F1F700C0000088E20E94F1
S11301D08E0088E00E948E000E949C0086E00E94AF
S11301E08E008C2F0E948E00CF9108958CE00E9487
S11301F0B40060E081E00E94920080E091E00E94FF
S1130200A40061E083E00E94920087E091E00E94F4
S1130210A40060E088E00E9492008CE091E00E94DB
S1130220A40060E08DE00E9492008EE091E00E94C4
S1130230A40061E088E00E94920080E191E00E94C5
S1130240A400ECE7F0E08081806480838081807F7B
S11302508083EAE7F0E08081806880838081886021
S11302608083808187608083E1E8F0E080818B7FF8
S11302708083808183608083EFE6F0E08081816009
S1130280808387E690E00E94F3027894FFCF1F9268
S11302900F920FB60F9211248F93EF93FF93EAE717
S11302A0F0E0808180648083FF91EF918F910F90C3
S11302B00FBE0F901F9018951F920F920FB60F92BA
S11302C01124EF92FF920F931F932F933F934F9319
S11302D05F936F937F938F939F93AF93BF93EF93AA
S11302E0FF93CF93DF93CDB7DEB7A497DEBFCDBF27
S11302F080E390E39A8389839C838B8300917800C5
S113030010917900E02EF12E4AE0BE016F5F7F4F1D
S1130310C8010E94300360E088E00E9492008CE2F1
S113032091E00E94A40060E088E00E949200CE0167
S113033001960E94A4000C3B82E0180760F482E15D
S113034091E00E942103CE0101960E94210387E2DD
S113035091E00E94210340E1BE016F5F7F4F8E2D2B
S11303609F2D0E94300360E08DE00E9492008DE298
S113037091E00E94A40060E08DE00E949200CE0112
S113038001960E94A40061E088E00E9492008AE243
S113039091E00E94A40061E088E00E94920081E361
S11303A091E00E94A400C80180569109099780F445
S11303B061E088E00E9492008AE291E00E94A40039
S11303C061E088E00E94920087E391E00E94A4002B
S11303D0C801815F9109099780F461E088E00E9477
S11303E092008AE291E00E94A40061E088E00E9409
S11303F092008AE391E00E94A400C8018C589140C5
S11304000E9780F461E088E00E9492008AE291E015
S11304100E94A40061E088E00E9492008FE391E0D2
S11304200E94A400C80186589240099780F461E0B4
S113043088E00E9492008AE291E00E94A40061E0B8
S113044088E00E94920084E491E00E94A400073FA7
S113045083E0180780F061E088E00E9492008AE25D
S113046091E00E94A40061E088E00E9492008BE485
S113047091E00E94A40001151105D9F1DE01159641
S1130480E0E0F0E001C0FC01C801817099278D9380
S11304909D9316950795CF0101960115110599F7BE
S11304A01E161F060CF5EE0FFF1FEC0FFD1F3796EF
S11304B09E01295F3F4F10E092918291019709F4C8
S11304C01F5FE217F307C1F761E08FE00E9492001B
S11304D010FF05C080E591E00E94A4000FC082E5F2
S11304E091E00E94A4000AC061E08FE00E949200A3
S11304F0F6CF61E08FE00E949200F1CFA4960FB690
S1130500F894DEBF0FBECDBFDF91CF91FF91EF9185
S1130510BF91AF919F918F917F916F915F914F9117
S11305203F912F911F910F91FF90EF900F900FBE6D
S11305300F901F9018951F920F920FB60F921124CF
S11305402F938F939F93EF93FF938091C0002091FB
S1130550C6008C71E0915601EF5FEF7190915501E7
S1130560E91739F0E0935601F0E0E75AFE4F208393
S113057001C082E090915401892B80935401FF9132
S1130580EF919F918F912F910F900FBE0F901F901D
S113059018951F920F920FB60F9211248F939F9369
S11305A0EF93FF939091580180915701981769F048
S11305B0E0915701EF5FEF71E0935701F0E0E758E6
S11305C0FE4F80818093C60005C0E1ECF0E080819D
S11305D08F7D8083FF91EF919F918F910F900FBE3C
S11305E00F901F9018951092580110925701109275
S11305F056011092550199231CF422E02093C00067
S113060090789093C5008093C40088E98093C100DA
S113061086E08093C2000895209158012F5F2F71C6
S1130620909157012917E1F3E22FF0E0E758FE4FCC
S1130630808320935801E1ECF0E080818062808324
S11306400895CF93DF93EC018881882331F02196BC
S11306500E940C0389918111FBCFDF91CF91089502
S1130660BB274A3031F4992322F4BDE29095819559
S11306709F4F0C943C03BB27FB015527AA27880FE7
S1130680991FAA1FA41710F0A41B83955051B9F702
S1130690A05DAA3308F0A95DA193009779F7B11181
S11306A0B1931192CB010C945503DC01FC01672F2B
S11306B071917723E1F7329704C07C916D93708335
S11106C06291AE17BF07C8F30895F894FFCFF8
S11306CE76616C75653A006B65793A00610062007B
S11306DE6300427574746F6E207761732070726557
S11306EE737365643A20000D0A0020202020202018
S11306FE00526967687400557000446F776E004C41
S113070E6566740053656C656374004E6F6E6500A8
S107071E3100300072
S9030000FC
