S01700004763634170706C69636174696F6E312E737265635B
S11300000C9434000C943E000C943E000C943E007E
S11300100C943E000C943E000C943E000C943E0064
S11300200C943E000C943E000C943E000C943E0054
S11300300C943E000C943E000C943E000C943E0044
S11300400C943E000C943E000C943E000C943E0034
S11300500C943E000C943E000C943E000C943E0024
S11300600C943E000C943E0011241FBECFEFD8E048
S1130070DEBFCDBF0E948B000C94C1000C94000025
S113008098B184E0892788B92FEF89E698E1215057
S113009080409040E1F700C000004298089598B174
S11300A082E0892788B92FEF89E698E121508040C2
S11300B09040E1F700C000004198089598B181E0B4
S11300C0892788B92FEF89E698E121508040904034
S11300D0E1F700C000004098089595B184E08927B5
S11300E085B92FEF89E698E1215080409040E1F7EF
S11300F000C000002A98089595B182E0892785B947
S11301002FEF89E698E1215080409040E1F700C04C
S11301100000299808953A9A4298399A4198389A51
S11301204098229A2A98219A29985098589A2FEF01
S113013080E792E0215080409040E1F700C0000049
S11301404899F5CF0E9440004899F1CF0E944F0092
S11301504899EDCF0E945E004899E9CF0E946D0056
S11301604899E5CF0E947C004899E1CF0E946D0038
S11301704899DDCF0E945E004899D9CF0E944F0074
S1090180D6CFF894FFCF76
S9030000FC
