S01700004763634170706C69636174696F6E312E737265635B
S11300000C9434000C943E000C943E000C943E007E
S11300100C943E000C943E000C943E000C943E0064
S11300200C943E000C943E000C943E000C943E0054
S11300300C943E000C943E000C943E000C943E0044
S11300400C943E000C943E000C943E000C943E0034
S11300500C943E000C943E000C943E000C943E0024
S11300600C943E000C943E0011241FBECFEFD8E048
S1130070DEBFCDBF0E9463000C94BB000C94000053
S11300802D9A2FEF8DE399E4215080409040E1F7C1
S113009000C000002D9808952D9A2FEF89E698E16D
S11300A0215080409040E1F700C000002D98089551
S11300B02D982FEF8DE399E4215080409040E1F793
S11300C000C000000895259A2D980E9440002FEF4B
S11300D089E698E1215080409040E1F700C000009B
S11300E00E944C002FEF89E698E121508040904017
S11300F0E1F700C000000E944C000E9458000E94DA
S11301004C000E9458000E944C002FEF89E698E1B1
S1130110215080409040E1F700C000000E944C0054
S11301202FEF89E698E1215080409040E1F700C02C
S113013000000E9440002FEF89E698E121508040A2
S11301409040E1F700C000000E9440002FEF89E6D4
S113015098E1215080409040E1F700C000000E94E7
S113016040002FEF85EE9AEA215080409040E1F75D
S10D017000C00000AACFF894FFCFEE
S9030000FC
