S01400006770696F5F6C6962726172792E737265630D
S11300000C9434000C943E000C943E000C943E007E
S11300100C943E000C943E000C943E000C943E0064
S11300200C943E000C943E000C943E000C943E0054
S11300300C943E000C943E000C943E000C943E0044
S11300400C943E000C943E000C943E000C943E0034
S11300500C943E000C943E000C943E000C943E0024
S11300600C943E000C943E0011241FBECFEFD8E048
S1130070DEBFCDBF0E947A000C94AE000C94000049
S1130080FC01408121E030E002C0220F331F6A9559
S1130090E2F7242B20830895FC01808121E030E0E5
S11300A002C0220F331F6A95E2F7922F909589239D
S11300B0808380818181282B21830895FC01208104
S11300C020830895FC01408121E030E002C0220F2A
S11300D0331F6A95E2F7242720830895FC01808169
S11300E090E002C0959587956A95E2F7F1E08F2735
S11300F08170089560E087E290E00E94400060E033
S113010088E290E00E945E0065E084E290E00E9454
S1130110400065E085E290E00E945E0060E08AE2D3
S113012090E00E944C002FEF89E698E12150804036
S11301309040E1F700C0000060E089E290E00E9496
S11301406E00882381F365E085E290E00E946200FE
S113015060E088E290E00E946200E5CFF894FFCF6F
S9030000FC
